S01D000062696E2F6F70656E626C745F73746D3332663430312E7372656398
S31508000000000001200D0600086D0600086D060008B0
S315080000106D0600086D0600086D0600080000000061
S315080000200000000000000000000000006D06000847
S315080000306D060008000000006D060008411800085B
S315080000406D0600086D0600086D0600086D060008B6
S315080000506D0600086D0600086D0600086D060008A6
S315080000606D0600086D0600086D0600086D06000896
S315080000706D0600086D0600086D0600086D06000886
S315080000806D0600086D0600086D06000800000000F1
S315080000900000000000000000000000006D060008D7
S315080000A06D0600086D0600086D0600086D06000856
S315080000B06D0600086D0600086D0600086D06000846
S315080000C06D0600086D0600086D0600086D06000836
S315080000D06D0600086D0600086D06000800000000A1
S315080000E06D0600086D0600086D0600080000000091
S315080000F00000000000000000000000006D06000877
S31508000100000000006D0600086D0600086D06000870
S3150800011000000000000000000000000000000000D1
S315080001206D0600086D0600086D0600086D060008D5
S315080001306D06000800000000000000000000000036
S315080001400000000000000000000000006D06000826
S315080001506D0600086D0600086D0600086D060008A5
S315080001606D0600086D06000800000000000000008B
S315080001700000000000000000000000000000000071
S31508000180000000006D0600080000000000000000E6
S309080001906D060008E2
S315080001940348044B834202D0034B03B11847704704
S315080001A41000002010000020000000000548064941
S315080001B40B1AD90F01EBA301491002D0034B03B163
S315080001C418477047100000201000002000000000A7
S315080001D410B5064C237843B9FFF7DAFF044B13B17D
S315080001E40448AFF300800123237010BD10000020DB
S315080001F4000000006022000808B5044B1BB104493E
S315080002040448AFF30080BDE80840CFE700000000CB
S31508000214140000206022000853B94AB9002908BF0F
S3150800022400281CBF4FF0FF314FF0FF3000F074B9BF
S31508000234ADF1080C6DE904CE00F006F8DDF804E02B
S31508000244DDE9022304B070472DE9F047089D04460A
S315080002548E46002B4DD18A42944669D9B2FA82F267
S3150800026452B101FA02F3C2F1200120FA01F10CFAA3
S3150800027402FC41EA030E94404FEA1C48210CBEFBDB
S31508000284F8F61FFA8CF708FB16E341EA034306FB64
S3150800029407F199420AD91CEB030306F1FF3080F0F3
S315080002A41F81994240F21C81023E63445B1AA4B240
S315080002B4B3FBF8F008FB103344EA034400FB07F7E2
S315080002C4A7420AD91CEB040400F1FF3380F00A8123
S315080002D4A74240F207816444023840EA0640E41B18
S315080002E400261DB1D4400023C5E900433146BDE8C4
S315080002F4F0878B4209D9002D00F0EF800026C5E966
S31508000304000130463146BDE8F087B3FA83F6002E7D
S315080003144AD18B4202D3824200F2F980841A61EBF5
S31508000324030301209E46002DE0D0C5E9004EDDE713
S3150800033402B9FFDEB2FA82F2002A40F09280A1EBFB
S315080003440C014FEA1C471FFA8CFE0126200CB1FB50
S31508000354F7F307FB131140EA01410EFB03F0884249
S3150800036408D91CEB010103F1FF3802D2884200F2D6
S31508000374CB804346091AA4B2B1FBF7F007FB101168
S3150800038444EA01440EFB00FEA64508D91CEB040406
S3150800039400F1FF3102D2A64500F2BB800846A4EB61
S315080003A40E0440EA03409CE7C6F12007B34022FA4C
S315080003B407FC4CEA030C20FA07F401FA06F31C437B
S315080003C4F9404FEA1C4900FA06F3B1FBF9F8200C88
S315080003D41FFA8CFE09FB181140EA014108FB0EF0CE
S315080003E4884202FA06F20BD91CEB010108F1FF3A1E
S315080003F480F08880884240F28580A8F1020861442A
S31508000404091AA4B2B1FBF9F009FB101144EA014137
S3150800041400FB0EFE8E4508D91CEB010100F1FF34E2
S315080004246CD28E456AD90238614440EA0840A0FB7A
S315080004340294A1EB0E01A142C846A64656D353D050
S315080004445DB1B3EB080261EB0E0101FA07F722FA74
S3150800045406F3F1401F43C5E9007100263146BDE89D
S31508000464F087C2F12003D8400CFA02FC21FA03F300
S31508000474914001434FEA1C471FFA8CFEB3FBF7F081
S3150800048407FB10360B0C43EA064300FB0EF69E42A6
S3150800049404FA02F408D91CEB030300F1FF382FD23F
S315080004A49E422DD9023863449B1B89B2B3FBF7F6E7
S315080004B407FB163341EA034106FB0EF38B4208D9C0
S315080004C41CEB010106F1FF3816D28B4214D9023E01
S315080004D46144C91A46EA004638E72E46284605E71F
S315080004E40646E3E61846F8E64B45A9D2B9EB0208F0
S315080004F464EB0C0E0138A3E74646EAE7204694E780
S315080005044046D1E7D0467BE7023B614432E73046B2
S3150800051409E76444023842E7704700BF70B50D4ED8
S315080005240D4D761BB61006D0002455F8043B01344D
S315080005349847A642F9D1094E094D761B01F08EFE5D
S31508000544B61006D0002455F8043B01349847A64251
S31508000554F9D170BDE8230008E8230008EC23000855
S31508000564E8230008830730B548D0541E002A3FD034
S31508000574CAB2034601E0013C3AD303F8012B9D07AE
S31508000584F9D1032C2DD9CDB245EA05250F2C45EA18
S31508000594054536D9A4F1100222F00F0C03F1200EFA
S315080005A4E6444FEA121C03F1100242E9045542E9F3
S315080005B4025510327245F8D10CF1010214F00C0FF1
S315080005C403EB021204F00F0C13D0ACF1040323F06E
S315080005D403030433134442F8045B9342FBD10CF03F
S315080005E403042CB1CAB21C4403F8012B9C42FBD168
S315080005F430BD64461346002CF4D1F9E70346144685
S31508000604BFE71A46A446E0E7DFF83CD0002103E03A
S315080006140E4B5B58435004310D480E4B42189A4210
S31508000624F6D30D4A02E0002342F8043B0B4B9A42E8
S31508000634F9D300F0F7FF0A480A490160FFF76EFF8D
S3150800064400F0FAFF7047000000000120F0230008BC
S315080006540000002010000020100000200C060020D6
S3150800066408ED00E000000008FEE74FF4FA7000F019
S3150800067403B800F007B80000014B1880704700BFA4
S315080006842C00002010B50C4C01F0D4FD23689842C8
S315080006940FD30A4B1A786AB9012209481A704FF41B
S315080006A4005100F0D1FB01F0C5FD064B1B88184428
S315080006B4206010BD0022F0E7300000202E00002044
S315080006C4000802402C0000200B4B0C4A10B51A6295
S315080006D400240B4A1C625A620A4A5C621A61802226
S315080006E41C615A614FF0FF325C619A619C6101F0AA
S315080006F46DF8204610BD00BF003802400FC8E2104E
S31508000704317907009F10600038B50E4A0E4B05462E
S3150800071418784FF47A73B3FBF0F31068B0FBF3F070
S3150800072400F074F8044658B90F2D09D8024629462C
S315080007344FF0FF3000F038F8044B20461D6038BDF2
S315080007440120FCE708000020000000200400002027
S3150800075408B50B4B1A6842F400721A601A6842F418
S3150800076480621A601A6842F480721A60032000F0E4
S3150800077409F80020FFF7C8FF00F0C2FF002008BDF3
S31508000784003C02400749CA6822F4E06203021204E4
S3150800079403F4E063120C134343F0BF6343F40033DA
S315080007A4CB60704700ED00E030B5164BDC68C4F347
S315080007B40224C4F10705231D042D28BF0425062B8E
S315080007C44FF0FF338CBF033C002403FA05F521EAF6
S315080007D40501A34022EA0302A140002841EA0203D4
S315080007E4ACBF00F16040084A4FEA0313B8BF00F0F3
S315080007F40F00DBB2AABF00F56140135480F800333A
S3150800080430BD00BF00ED00E014ED00E00138B0F1A2
S31508000814807F0BD24FF0E023054A5861F02182F815
S3150800082423100020072298611A6170470120704737
S3150800083400ED00E010B509490C6924F440740C6114
S315080008440C6944F440740C610C6944F001040C61AD
S315080008540260BFF36F8F436010BD00BF003C0240C7
S31508000864074B1A6922F440721A611A6942F4007233
S315080008741A611A6942F001021A610160704700BFE1
S31508000884003C0240074B1A6922F440721A611A693D
S3150800089442F480721A611A6942F001021A610180EF
S315080008A4704700BF003C0240204BDA68D00606D5E4
S315080008B41F49CA6942F01002CA611022DA60DA686E
S315080008C4910606D51A49CA6942F00802CA61202265
S315080008D4DA60164BDA68520606D51549CA6942F033
S315080008E40402CA614022DA60DA68100606D510499D
S315080008F4CA6942F00202CA618022DA600B4BDA68DE
S31508000904D10507D50A49CA6942F00102CA614FF4FA
S315080009148072DA60DA68920706D50549CA6942F030
S315080009242002CA610222DA60704700BF003C024016
S3150800093434000020064B1A69002ABFBF054A5A60CC
S3150800094402F188325A60BABF1869C00F002070478E
S31508000954003C024023016745034A136943F00043F8
S3150800096413610020704700BF003C0240114B70B56C
S3150800097400220446DA6101F065FC0F4D0646EB6871
S31508000984DA030CD4EB68DB0744BF0123EB60E868A1
S3150800099410F4F97007D0FFF787FF012003E0611C04
S315080009A4EDD00CB9032070BD01F04CFC801BA042AD
S315080009B4E5D9F7E734000020003C0240F7B5204E9D
S315080009C401931446327E012A07460D4635D0012284
S315080009D44CF250303276FFF7C9FFB8B9019BCFB94C
S315080009E4184B1A6922F440721A611A691A611A694B
S315080009F4E4B242F001021A612C704CF25030FFF74F
S31508000A04B5FF104A136923F00103136100233376F3
S31508000A1403B0F0BD012F04D1A1B22846FFF732FF77
S31508000A24EBE7022F04D121462846FFF719FFE4E72E
S31508000A3422462846FFF7FEFEDFE70220E8E700BF66
S31508000A4434000020003C0240074B196921F4407128
S31508000A541961196941F0040119611A6942EA002009
S31508000A6440F4803018617047003C024039B10129CE
S31508000A741CD002290CBF4FF400714FF440710D4B82
S31508000A841A6922F440721A611A69114319611A69BA
S31508000A9422F0F8021A611A6942EAC00040F002001C
S31508000AA418611A6942F480321A6170474FF48071EA
S31508000AB4E5E700BF003C0240144B1A6891050FD5C0
S31508000AC41A6822F400721A601A6842F400621A60FC
S31508000AD41A6822F400621A601A6842F400721A60EC
S31508000AE40A4B1A6852050FD51A6822F480621A60EE
S31508000AF41A6842F480521A601A6822F480521A60FC
S31508000B041A6842F480621A60704700BF003C0240CB
S31508000B142DE9F843DFF8948098F81830012B054638
S31508000B240F463FD001234CF2503088F81830FFF7AF
S31508000B341DFF0446A0B94FF0FF333B602B68012B19
S31508000B4414D1287CFFF780FF4CF25030FFF70EFFD4
S31508000B54154A136923F0040304461361FFF7ACFF2F
S31508000B64002388F818302046BDE8F883AE68DFF815
S31508000B743890D5E902231344B342EFD9297C304689
S31508000B84FFF774FF4CF25030FFF7F0FED9F8103037
S31508000B9423F0FA03C9F8103010B13E600446DDE7C5
S31508000BA40136E6E70224DEE7003C02403400002072
S31508000BB42DE9F74FDFF890C1614ADFF890810023E9
S31508000BC44FF0010E0D680EFA03F404EA0506AC4369
S31508000BD440F0A7804D6805F003055F000324013D36
S31508000BE4BC40012D6FEA040411D8856805EA040996
S31508000BF4CD68BD4045EA09058560456825EA0609C4
S31508000C044D68C5F300159D4045EA090545604D68DC
S31508000C1405F00305032D23D0C56805EA04098D6884
S31508000C24BD4045EA0905C5604D6805F00305022D72
S31508000C3416D14FEAD30A00EB8A0A03F0070BDAF84F
S31508000C4420504FEA8B0B4FF00F0909FA0BF925EAE6
S31508000C5409090D6905FA0BF545EA0905CAF820508C
S31508000C6405682C404D6805F00305BD402C43046017
S31508000C744C6814F4403F54D04FF0000BCDF804B040
S31508000C84DCF844502F4C45F48045CCF84450DCF845
S31508000C94445005F480450195019D23F0030505F1AB
S31508000CA4804505F59C3503F00309D5F808A04FEAF5
S31508000CB489090F2707FA09F7A0422AEA070737D04E
S31508000CC404F58064A04235D004F58064A04233D08C
S31508000CD4404533D004F50064A0420CBF042407241D
S31508000CE404FA09F43C43AC604C689768F543E4029B
S31508000CF454BF2F40374397604C68D768A40254BF43
S31508000D042F403743D7604C685768A40354BF2F4015
S31508000D14374357604C681768E40354BF2F4037437A
S31508000D2417600133102B7FF44DAF03B0BDE8F08F85
S31508000D345C46D5E70124D3E70224D1E70324CFE7A9
S31508000D44003C01400000024000380240000C02400A
S31508000D543B4A2DE9F04F00234FF0010A4FF00F08E4
S31508000D644FF0030B0AFA03FC3CEA01040CEA0106F9
S31508000D7458D123F0030404F1804404F59C3403F0A9
S31508000D840307A568BF0008FA07F909EA050E2D4DF9
S31508000D94A8424CD005F58065A8424AD005F5806579
S31508000DA4A84248D005F58065A84246D005F5806571
S31508000DB4A8420CBF04250725BD40754513D11568FF
S31508000DC425EA06051560556825EA06055560D568B9
S31508000DD425EA0605D560956825EA06059560A56899
S31508000DE425EA0905A56005685C000BFA04F4DE0823
S31508000DF425EA040500EB8606056003F00705376A4D
S31508000E04AD0008FA05F527EA05053562C56825EA39
S31508000E140405C560456825EA0C054560856825EA24
S31508000E24040484600133102B9CD1BDE8F08F00259F
S31508000E34C2E70125C0E70225BEE70325BCE700BFD4
S31508000E44003C0140000002400AB181617047090470
S31508000E54FBE700002DE9F341044640B30368DD07C8
S31508000E6410D4236898075BD423681A0700F19D8079
S31508000E7423685B0700F1BD80A069002840F026813D
S31508000E8400202DE08E4B9A6802F00C02042A07D043
S31508000E949A6802F00C02082A0BD15A68510208D53E
S31508000EA4874B1B689A03DCD56368002BD9D10120CC
S31508000EB416E06268B2F5803F15D11A6842F48032AA
S31508000EC41A606368FBB101F0BDF97D4E05463368C7
S31508000ED49B03C6D401F0B6F9401B6428F7D903204E
S31508000EE402B0BDE8F081764BB2F5A02F1A6803D19B
S31508000EF442F480221A60E0E722F480321A601A6803
S31508000F0422F48022DCE701F09DF96D4E054633682C
S31508000F149F03A6D501F096F9401B6428F7D9DEE7A6
S31508000F24674B9A6812F00C0F07D09A6802F00C0205
S31508000F34082A11D15B685E020ED4614A13689D07BC
S31508000F4402D5E368012BB2D11368216923F0F803AB
S31508000F5443EAC103136087E7E2685A4BB2B1012238
S31508000F641A6001F06FF9564D06462B68980707D59F
S31508000F742B68226923F0F80343EAC2032B6073E75C
S31508000F8401F060F9801B0228EFD9A8E71A6001F07E
S31508000F9459F94B4E0546336899077FF565AF01F055
S31508000FA451F9401B0228F6D999E76269454B82B183
S31508000FB40122C3F8802E01F045F9414E0546736FA8
S31508000FC49F073FF555AF01F03DF9401B0228F6D9B6
S31508000FD485E7C3F8802E01F035F9394E0546736F57
S31508000FE498077FF545AF01F02DF9401B0228F6D97D
S31508000FF475E7334B1A6C12F080522BD101921A6C96
S3150800100442F080521A641B6C03F080530193019BCF
S3150800101401262D4D2B68D9051ED5A268284B012A11
S315080010242AD11A6F42F001021A67A368002B37D037
S3150800103401F008F9224F054641F288383B6F9B07B1
S3150800104428D5002E3FF418AF1D4A136C23F080539D
S31508001054136411E70026DCE72B6843F480732B60DE
S3150800106401F0F0F807462B68DA05D6D401F0EAF859
S31508001074C01B0228F7D932E7052A1A6F03D142F0B2
S3150800108404021A67CDE722F001021A671A6F22F0E2
S315080010940402C9E701F0D6F8401B4045CED91EE73D
S315080010A401F0D0F8064F054641F288383B6F980799
S315080010B4C7D501F0C7F8401B4045F7D90FE700BF6D
S315080010C4003802400000474200700040364DAB68C5
S315080010D403F00C03082B3DD0344B002202281A6671
S315080010E42BD101F0AFF806462B6899011FD4D4E931
S315080010F407321343626A43EA8213E26A43EA0263E3
S31508001104A26A5208013A43EA02436B60274B264D0A
S3150800111401221A6601F096F804462B689A013FF5EF
S31508001124AFAE01F08FF8001B0228F6D9D7E601F016
S3150800113489F8801B0228D7D9D1E601F083F804463A
S315080011442B689B017FF59CAE01F07CF8001B0228F6
S31508001154F6D9C4E601283FF4C3AE6B68E26903F422
S31508001164800191427FF4A3AE216A03F03F028A42CA
S315080011747FF49DAE616A47F6C0721A40B2EB811FCE
S315080011847FF495AEA26A520803F44031013AB1EBF2
S31508001194024F7FF48CAEE26A03F07063B3EB026F1E
S315080011A43FF46EAE83E600BF0038024000004742B3
S315080011B408B513498B6803F00C03042B1CD0082BC1
S315080011C41CD14A684B68496813F4800314BF0D4858
S315080011D40D48C1F3881118BF002302F03F02A1FB92
S315080011E40001FFF719F8064B5B68C3F301430133A3
S315080011F45B00B0FBF3F008BD0248FCE70248FAE7D7
S315080012040038024000127A000024F4002DE9F04167
S315080012140D46044610B90120BDE8F081454B1A680D
S3150800122402F007028A422AD323689E072FD423682A
S31508001234D90743D43F4B1A6802F00702AA4268D872
S3150800124423685A076ED423681B0707D53A4A2169C7
S31508001254936823F4604343EAC1039360FFF7A8FF46
S31508001264354B364A9B68C3F30313D35CD840344BD7
S315080012741860344B1868FFF747FA0020CCE7CAB25F
S315080012841A701B6803F007038B42C4D1CCE75807CE
S3150800129441BF294A936843F4E05393602368264A76
S315080012A413F0080F1EBF936843F460439360936872
S315080012B4A16823F0F0030B439360B8E762681E4BFA
S315080012C4012A1CD11B6813F4003FA4D01A4EB36834
S315080012D423F003031343B36000F0B4FF41F28838E4
S315080012E40746B368626803F00C03B3EB820FA1D018
S315080012F400F0A8FFC01B4045F3D903208CE7911ED4
S3150800130401291B6802D813F0007FDEE713F0020FE9
S31508001314DBE7EAB21A701B6803F00703AB427FF4F3
S315080013247AAF8DE7044AE168936823F4E0530B43E4
S31508001334936088E7003C024000380240782200089F
S31508001344080000200400002070B5414C00F07AFF24
S31508001354236843F00103054623602368980758D594
S31508001364236843F08003236000F06CFF0023A36026
S31508001374374C054641F28836A36813F00C0F4FD153
S3150800138400F060FF236823F450232360304C05469D
S31508001394236899034AD400F055FF236823F0807321
S315080013A423602B4C054623689A0145D400F04AFF6E
S315080013B4236823F080632360254C054623681B01B4
S315080013C440D4244B6360244BC4F88430E368234A2E
S315080013D423F4F853E360E36823F40053E360E36813
S315080013E443F41F03E360E36843F40013E360636FA5
S315080013F423F001036367636F43F080736367184BD5
S315080014041A60184B1868FFF77FF9003818BF0120CF
S3150800141405E000F017FF401B02289ED9032070BD83
S3150800142400F010FF401BB042A6D9F7E700F00AFF08
S31508001434401B6428ACD9F1E700F004FF401B0228DE
S31508001444B1D9EBE700F0FEFE401B0228B6D9E5E762
S315080014540038024010300004003000200024F40054
S315080014640800002004000020034B044A9B68C3F3C9
S315080014740313D35CD840704700380240782200082A
S31508001484034B044A9B68C3F38223D35CD840704752
S315080014940038024088220008034B044A9B68C3F3B9
S315080014A44233D35CD840704700380240882200088B
S315080014B40E4A0F49536813F4800F0E4B18BF0B4698
S315080014C4082810D150685168526800F03F00B3FBF1
S315080014D4F0F0C1F388135843C2F3014301335B00A8
S315080014E4B0FBF3F070470020704700BF0038024095
S315080014F400127A000024F400064B986800F00C00E9
S31508001504042803D0082803D1FFF7D2BF024870473E
S31508001514024870470038024000127A000024F4009A
S3150800152410B50446FFF7E8FF2060FFF79DFF6060EB
S31508001534FFF7A6FFA0606068FFF7AEFFE06010BD86
S315080015447FB5C3689B0404460D4602D5012004B042
S3150800155470BD4B68C968C2680B4329690B43A969FE
S3150800156422F416420B4322F00C021343C3600369A8
S31508001574AA6823F440531343036143696A6923F44D
S315080015844073134343616846FFF7CAFF224B9C42E4
S3150800159428D103990029D9D02B68002BD6D0AA695B
S315080015A41920B2F5004FA1FB000124D1DA184FF037
S315080015B4000545EB0503FEF72FFE6421B0FBF1F6A3
S315080015C401FB1603DB003233B3FBF1F303F0070226
S315080015D45B0002EB061203F4F87313449BB2A36090
S315080015E40020B4E70D4B9C4201D10299D2E70C4B7B
S315080015F49C42ABD1CDE79A009B0FFEF70DFE642201
S31508001604B0FBF2F102FB11031B013233B3FBF2F315
S3150800161403EB0113E2E700BF001001400044004059
S3150800162400140140034AD2F8883043F47003C2F820
S315080016348830704700ED00E000B595B0FFF788F8EC
S315080016443022002108A8FEF78DFF1422002103A8E2
S31508001654FEF788FF274B002101911A6C42F080524D
S315080016641A641B6C244A03F080530193019B02916C
S31508001674136823F4404343F400431360136803F4E4
S3150800168440430293029B01214FF480330220CDE9A3
S3150800169408134FF48003CDE90E034FF0190C4FF4E9
S315080016A4A873CDE910C34FF0040E072308A8CDE9A3
S315080016B412E3FFF7CFFB18B11048952100F0BFF8E5
S315080016C40F230221CDE9033100224FF4A053CDE9BB
S315080016D4052303A84FF480530793FFF797FD18B122
S315080016E40648A42100F0ABF800F0EAF800F0F7F891
S315080016F4FCE700BF00380240007000409022000852
S3150800170430B58DB02E4B2F48002401941A6C42F044
S3150800171480521A641A6C02F080520192019A029459
S315080017245A6C42F480425A645A6C02F48042029219
S31508001734029A03941A6B42F001021A631A6B02F0B6
S3150800174401020392039A04941A6B42F002021A6382
S315080017541A6B02F002020492049A05941A6B42F078
S3150800176404021A631A6B02F004020592059A069497
S315080017745A6C42F010025A645B6C03F01003069329
S31508001784069B4FF40055012307A9CDE90753CDE974
S315080017940944FFF70DFA224629460A48FFF754FB7F
S315080017A44FF4C0620223CDE9072303210723CDE9B9
S315080017B40A130548099407A9FFF7FAF90DB030BDCD
S315080017C400380240000802400000024008B5FFF74E
S315080017D4BBFD002216484FF40051FFF735FB1448A9
S315080017E44FF40051FFF7B4FA12484FF40071FFF7AB
S315080017F4AFFA10484FF48061FFF7AAFA0E4B5A6CF9
S3150800180422F010025A641A6B22F004021A631A6B45
S3150800181422F002021A631A6B22F001021A631A6C86
S3150800182422F080521A645A6C22F480425A6408BD23
S31508001834000802400000024000380240704708B51C
S3150800184400F0A5F8FCE7000010B500F097F80128A9
S3150800185414D00B4C2378012B10D100F0EBFC094B68
S31508001864094A1B681268134403F5FA73984205D3A8
S3150800187400232370BDE8104000F0DAB910BD00BF9C
S3150800188458000020540000205C00002008B5044BD2
S315080018941B78012B03D100F0CDFC024B186008BD60
S315080018A4580000205C00002008B5044B01221A7079
S315080018B4FFF7ECFFBDE80840FFF7C6BF5800002055
S315080018C408B500F0B3F900F060F800F037FC00F052
S315080018D48BFB00F00FF8BDE80840FFF7E5BF08B535
S315080018E400F055F800F088FC00F010F8BDE8084050
S315080018F4FFF7AABF08B500F059F800F09DFB024BA4
S3150800190400221A7008BD00BF0C00002007B509485C
S315080019140DF1070100F0C8FB012807D1064B9DF815
S315080019240710044800221A7000F062F803B05DF844
S3150800193404FB00BF600000200C0000207047000074
S3150800194408B5054B1B7813B9C9B200F093FBBDE87B
S31508001954084000F045B800BF0C000020054B1B7872
S31508001964022B04D0032B14BF81203F207047082084
S31508001974704700BF0C000020FFF7F0BF08B500F061
S3150800198425F8003818BF012008BDFEF76EBEFEF71D
S3150800199470BE0000034BFE221A7002225870A3F888
S315080019A486207047E400002000687047064B002232
S315080019B4C3F88820A3F8862083F88120A3F8822018
S315080019C483F88420704700BFE4000020034B93F893
S315080019D48100003818BF0120704700BFE4000020CA
S315080019E4024B002283F88420704700BFE4000020DD
S315080019F4F8B503788A4CFF2B054630D1012200231B
S31508001A0484F8812041F2FF0284F88230A370228090
S31508001A14FFF7A4FFE070FFF7AFFF2071FFF7ACFFF5
S31508001A2440F20113000AE38008236071A4F88630A3
S31508001A3400F0DAFA94F88430012B02D11020FFF76B
S31508001A44A9FFB4F98610002940F3E980012384F834
S31508001A5484307348BDE8F84089B2FFF771BF94F83B
S31508001A648120012A40F0DB80D22B16D8C82B19D93D
S31508001A74C93B092B16D8DFE803F07F151589151518
S31508001A84CF96C3B8F33B0B2B0CD8DFE803F03E28FC
S31508001A940D350B0B0B590B61636D03F10D02D2B2B5
S31508001AA40B2AEFD9202005E0FFF758FF6A78904201
S31508001AB403D82220FFF76EFFBCE7D4F888105948EC
S31508001AC400F0D4F8FF236A782370D4F888301344D6
S31508001AD4C4F888306B780133A4F88630AAE7FFF790
S31508001AE43DFF6B788342E4D2281DFFF75DFFC4F8F7
S31508001AF488006A780146E2E7FF23281D2370FFF76A
S31508001B0453FFC4F888000123E6E7281DFF23237042
S31508001B14FFF74AFFD4F8886000258719BE4208D122
S31508001B240023012225716371E380627063800823B0
S31508001B34D2E716F8013B1D44EDB2FFF728FFEDE79F
S31508001B44394BC4F88830FF220723C4E90023EEE79B
S31508001B540020AFE7FF23238094F88230A370002384
S31508001B64E370A3800623B7E7002384F8813084F85A
S31508001B748230FF232370C6E7D4F88860FFF7EEFEA9
S31508001B846A1C411E304600F031FA08B9312091E743
S31508001B94FF232370FFF7E2FED4F8883001380344A4
S31508001BA4C4F88830AFE7FFF7D9FE6B780138984256
S31508001BB47FF77FAFFF2323700123A4F88630697863
S31508001BC429B900F01BFA00287FF434AFDEE7D4F80D
S31508001BD48800AA1C00F00AFA0028D7D06A78D4F834
S31508001BE488301344C4F8883024E7FF23002523806B
S31508001BF4A570FFF7B3FEA580E070A57107236BE710
S31508001C040430FFF7D1FED4F888300146184600F0B0
S31508001C14EFF90028ADD1B9E700F00AF8A9E7F8BD4D
S31508001C24E4000020E50000209722000800F012BB1B
S31508001C3410B500F0DFF9B0B1FFF780FEFEF744FDFA
S31508001C4400F0BCFA00F0D8F9074B20F0604020F009
S31508001C547F00986000F0D0F9446800F0FDFA234646
S31508001C64BDE81040184710BD00ED00E0F8B506467B
S31508001C740F4615460024AC4200D1F8BD3B5D3355EA
S31508001C84FFF785FE0134F6E7F8B50C4C0646002541
S31508001C942746FFF77CFE2368B34208D862681344D4
S31508001CA4B34204D90C2303FB0575287AF8BD01351C
S31508001CB4162D04F10C04ECD1FF20F7E7BC2200082A
S31508001CC42DE9F7430646FEF735FE002506F1040915
S31508001CD4D6F8008059F8057005EB08010191FFF75D
S31508001CE456FE01993A4600230220FEF767FE04468B
S31508001CF470B955F80830BB4204D10435B5F5007FF0
S31508001D04E6D10124FEF728FE204603B0BDE8F08399
S31508001D140024F7E738B50E4B984204460D4607D01B
S31508001D240C4A914212D0FFF7CBFF10B904460BE0D8
S31508001D34094C23689D4207D020464FF4007240F8A8
S31508001D44045B2946FFF792FF204638BD1C46F0E798
S31508001D547403002000800008700100202DE9F0417A
S31508001D641F46036821F4FF76013304460D46904660
S31508001D7426F0010606D140F8046B4FF4007231468A
S31508001D84FFF774FF2368B34205D020463146FFF7B0
S31508001D94C1FF0446E8B1216804356D1A254406F5E1
S31508001DA400764744FFF7F3FD231DEB1AB3F5007FCE
S31508001DB406D320463146FFF7ADFF044648B1051D54
S31508001DC418F8013B05F8013BB845EBD10120BDE8FD
S31508001DD4F0810020FBE70000034A4FF0FF3313604D
S31508001DE4024A1360704700BF700100207403002084
S31508001DF437B5134B01920D461B1A0139994204460D
S31508001E041AD8FFF741FFFF2816D0601E2844FFF7AB
S31508001E143BFFFF2810D00B49019A24F4FF7323F0E3
S31508001E2401038B420CBF084808482B46214603B0D9
S31508001E34BDE83040FFF792BF002003B030BD00BFB5
S31508001E44FFFF1F08008000087403002070010020AB
S31508001E542DE9F04F354B4A1E1B1A9A4289B004469F
S31508001E640E4604D90024204609B0BDE8F08FFFF7D2
S31508001E740BFF0546601E3044FFF706FFFF2D064696
S31508001E84F0D0FF28EED00024012D0294EBD91728B0
S31508001E94E9D88542E7D801230222CDE9063203941C
S31508001EA4FEF748FD224FDFF88C904FF00C0808FB2C
S31508001EB404F2BB18197AA94228D157F802A05C681B
S31508001EC44AEA04039B0704D04FF42E714846FFF7E9
S31508001ED4B6FC4FEA940B00245C454FEA840309D107
S31508001EE40135EDB2AE4203D20124FEF735FDBAE759
S31508001EF40024DCE7E2B21AB90193FFF748FD019B17
S31508001F0453F80A30013305D10134E5E70134E4B264
S31508001F14162CCCD1FFF73BFD02A903A80595FEF7BD
S31508001F24F7FD0028DCD00024DFE700BFFFFF1F0809
S31508001F34BC2200089F22000807B50E4A136801331D
S31508001F4416D0D2E901310B44D1680B480B44116908
S31508001F540B4451690B449169D2690B4413445B429F
S31508001F6401AA04210193FFF743FF03B05DF804FBBC
S31508001F740120FAE774030020948100080A4AD2E98A
S31508001F8400310B4491680B44D1680B4411690B4426
S31508001F9451690B449169D2F894210B44D3420CBF7E
S31508001FA401200020704700BF0080000808B50A48D1
S31508001FB40368013305D109480368013306D10120B2
S31508001FC408BDFFF77DFE0028F5D1F9E7FFF778FE8F
S31508001FD4003818BF0120F3E77403002070010020BD
S31508001FE40048704700800008FFF7F6BEFFF700BFF9
S31508001FF4FFF72EBFFFF7C2BFFFF7F2BF08B5FFF71B
S315080020049BFF18B1BDE80840FFF7D0BF08BD000024
S3150800201438B5084D686000F00DF900F10A042B681C
S315080020241B0605D4FFF7B3FC00F004F9A042F6D961
S3150800203438BD00BF0044004010B50D4CE36823F4D6
S31508002044005388B0E3604FF416520023CDE9012308
S3150800205401A90C222046CDE90333CDE905230793CC
S31508002064FFF76EFAE36843F40053E36008B010BD63
S3150800207400440040812938B504460D4603D9094869
S315080020848621FFF7DCFB2846FFF7C2FF2544AC424E
S3150800209400D138BDFFF77BFC14F8010BFFF7B8FF36
S315080020A4F5E700BFC4230008F8B51F4D1F4A2C786E
S315080020B40E46B4B913689B0602D400242046F8BD1C
S315080020C453681B4ADBB21370013BDBB2802BF4D88E
S315080020D400F0B0F8174B1860174B1C7001232B70CF
S315080020E4ECE7146814F0200414D0134C1049237830
S315080020F45768CA18013357700A78DBB29A422370B4
S31508002104DBD10131FFF7B2FD00232B70237833703E
S315080021140124D3E700F08EF8064B1B68C8339842AF
S31508002124CBD92C70CAE700BFFC0500200044004048
S315080021347805002000060020FD050020194A1A49E2
S31508002144536C43F001035364536C82B003F00103E8
S315080021540193019B9368C3F342330120C95C134B73
S315080021641B6823FA01F19368A2F59C3213F4604FB5
S315080021740CBF0123022310604B434FF6FF700C4932
S31508002184B3FBF1F3013BD0629362536943F0010355
S315080021945361084B00211960526A074B1A8002B032
S315080021A4704700BF00380240882200080800002053
S315080021B4A086010008060020040600200C4B5A6A73
S315080021C442F001025A625A6A22F001025A625A6CB1
S315080021D422F001025A644FF0E02300221A615A6180
S315080021E49A61044A536843F000735360704700BF0A
S315080021F40038024000ED00E010B50B4B0B485B6A53
S3150800220402889B1A9BB2632B0DD9094C6421B3FB34
S31508002214F1F32168194403EB830303EB830302EB0D
S3150800222483032160038010BD0000014004060020DA
S315080022340806002008B5FFF7DFFF014B186808BD3C
S315080022440806002008B5FFF7D7FF014B186808BD34
S315080022540806002072B6704762B67047F8B500BF24
S31508002264F8BC08BC9E467047F8B500BFF8BC08BC65
S309080022749E467047BD
S315080022780000000000000000010203040607080920
S3150800228800000000010203046D61696E2E63004FA9
S3150800229870656E424C54002E2E2F41524D434D34D4
S315080022A85F53544D333246342F666C6173682E6318
S315080022B8000000000080000800400000020000003E
S315080022C800C00008004000000300000000000108E4
S315080022D800000100040000000000020800000200D7
S315080022E805000000000004080000020006000000BF
S315080022F800000608000002000700000000000808A1
S31508002308000002000800000000000A080000020099
S315080023180900000000000C08000002000A0000007E
S3150800232800000E08000002000B000000000010085C
S31508002338004000000C0000000040100800400000A3
S315080023480D00000000801008004000000E00000084
S3150800235800C01008004000000F0000000000110827
S31508002368000001001000000000001208000002002A
S315080023781100000000001408000002001200000006
S3150800238800001608000002001300000000001808E4
S31508002398000002001400000000001A0800000200ED
S315080023A81500000000001C080000020016000000C6
S315080023B800001E0800000200170000002E2E2F41FC
S315080023C8524D434D345F53544D333246342F72734E
S30D080023D83233322E63000000C7
S30D080023E06CDEFF7F010000001E
S309080023E8FD010008DD
S309080023ECD501000801
S315080023F001000000100000000024F40005000000A1
S7050800060DDF
