S01D000062696E2F6F70656E626C745F73746D3332663430312E7372656398
S3150800000000000120010600085106000851060008F4
S3150800001051060008510600085106000800000000B5
S315080000200000000000000000000000005106000863
S315080000305106000800000000510600081D180008B7
S315080000405106000851060008510600085106000826
S315080000505106000851060008510600085106000816
S315080000605106000851060008510600085106000806
S3150800007051060008510600085106000851060008F6
S315080000805106000851060008510600080000000045
S3150800009000000000000000000000000051060008F3
S315080000A051060008510600085106000851060008C6
S315080000B051060008510600085106000851060008B6
S315080000C051060008510600085106000851060008A6
S315080000D051060008510600085106000800000000F5
S315080000E051060008510600085106000800000000E5
S315080000F00000000000000000000000005106000893
S3150800010000000000510600085106000851060008C4
S3150800011000000000000000000000000000000000D1
S315080001205106000851060008510600085106000845
S315080001305106000800000000000000000000000052
S315080001400000000000000000000000005106000842
S315080001505106000851060008510600085106000815
S3150800016051060008510600080000000000000000C3
S315080001700000000000000000000000000000000071
S315080001800000000051060008000000000000000002
S3090800019051060008FE
S315080001940348044B834202D0034B03B11847704704
S315080001A41000002010000020000000000548064B3F
S315080001B41B1AD90F01EBA301491002D0034B03B153
S315080001C418477047100000201000002000000000A7
S315080001D410B5064C237843B9FFF7DAFF044B13B17D
S315080001E40448AFF300800123237010BD10000020DB
S315080001F4000000008022000808B5044B1BB104491E
S315080002040448AFF30080BDE80840CFE700000000CB
S31508000214140000208022000853B94AB9002908BFEF
S3150800022400281CBF4FF0FF314FF0FF3000F06AB9C9
S31508000234ADF1080C6DE904CE00F006F8DDF804E02B
S31508000244DDE9022304B070472DE9F047089D0E4600
S3150800025404460F46002B4AD194468C45B2FA82F2DC
S3150800026460D942B1C2F12003974020FA03F30CFA8D
S3150800027402FC1F4394404FEA1C4E1FFA8CF6B7FB48
S31508000284FEF1230C0EFB117743EA074301FB06F044
S3150800029498420AD91CEB030301F1FF3780F0158154
S315080002A4984240F21281023963441B1AA4B2B3FB82
S315080002B4FEF00EFB103344EA034400FB06F6A6429E
S315080002C40AD91CEB040400F1FF3380F00081A6422E
S315080002D440F2FD806444023840EA0140A41B002130
S315080002E41DB1D4400023C5E90043BDE8F0878B421D
S315080002F405D90DB1C5E9000100210846F5E7B3FAA9
S3150800030483F1002946D1B34202D3824200F2F58032
S31508000314841A66EB030201201746002DE5D0C5E9C9
S315080003240047E2E7002A40F09380A1EB0C034FEA6A
S315080003341C471FFA8CFE0121B3FBF7F607FB1630A0
S31508000344230C43EA00430EFB06F0984208D91CEB3B
S31508000354030306F1FF3802D2984200F2D0804646DB
S315080003641B1AA4B2B3FBF7F007FB103344EA0344A1
S315080003740EFB00FEA64508D91CEB040400F1FF3366
S3150800038402D2A64500F2B6801846A4EB0E0440EA4B
S315080003940640A5E7C1F120078B4022FA07FC4CEA80
S315080003A4030C06FA01FE20FA07F426FA07F344EAD0
S315080003B40E0400FA01F84FEA1C404FEA1449B3FB4D
S315080003C4F0FE1FFA8CF600FB1E3349EA03430EFBC4
S315080003D406F9994502FA01F20BD91CEB03030EF14F
S315080003E4FF3A80F08580994540F28280AEF1020E8C
S315080003F46344A3EB0909A4B2B9FBF0F300FB139910
S3150800040444EA094403FB06F6A64208D91CEB04048D
S3150800041403F1FF3068D2A64266D9023B644443EA34
S315080004240E40A41BA0FB02E6B4427346B14652D35F
S315080004344FD05DB1B8EB030264EB090404FA07F77D
S3150800044422FA01F31F43CC40C5E9007400214CE7A6
S31508000454C2F1200120FA01F30CFA02FC26FA01F192
S31508000464964033434FEA1C471FFA8CFEB1FBF7F05C
S3150800047407FB1016190C41EA064100FB0EF68E42DC
S3150800048404FA02F408D91CEB010100F1FF382DD255
S315080004948E422BD902386144891B9BB2B1FBF7F60D
S315080004A407FB161143EA014306FB0EF1994208D9E4
S315080004B41CEB030306F1FF3814D2994212D9023E03
S315080004C463445B1A46EA004136E73946EDE61846C0
S315080004D402E7F045ADD2BEEB020366EB0C06013823
S315080004E4B146A6E74646ECE7034698E74046D3E70F
S315080004F4D6467EE76444023847E708460DE7023ED7
S3150800050463442DE7704700BF70B50F4B0F4DAB42E0
S31508000514A3EB050607D0B610002455F8043B0134AE
S315080005249847A642F9D801F0A9FE094D094B5E1B66
S31508000534AB424FEAA60606D0002455F8043B01341C
S315080005449847A642F9D870BD042400080424000874
S315080005540424000808240008830730B547D0541E2D
S31508000564002A3ED0CAB2034601E0013C39D303F857
S31508000574012B9D07F9D1032C2CD9CDB205EB052502
S315080005840F2C05EB054535D9A4F1100222F00F0C02
S3150800059403F1100EE6444FEA121C1A46C2E9005546
S315080005A4C2E9025510327245F8D10CF1010214F071
S315080005B40C0F03EB021204F00F0C13D0ACF1040376
S315080005C423F003030433134442F8045B9342FBD138
S315080005D40CF003042CB1C9B21C4403F8011BA34252
S315080005E4FBD130BD64461346002CF4D1F9E7034623
S315080005F41446C0E71A46A446E0E700BFDFF834D03D
S31508000604002103E00C4B5B58435004310B480C4B58
S3150800061442189A42F6D30B4A02E0002342F8043BF6
S31508000624094B9A42F9D300F0E7FFFFF76DFF00F094
S31508000634EDFF7047000001200C240008000000208C
S3150800064410000020100000200C060020FEE74FF4DE
S31508000654FA7000F003B800F007B80000014B1880E0
S31508000664704700BF3400002010B50C4C01F0F2FDB1
S31508000674236898420FD30A4B1A786AB901220948A3
S315080006841A704FF4005100F0C5FB01F0E3FD064B68
S315080006941B880344236010BD0022F0E730000020C5
S315080006A42C00002000080240340000200B4B0C4AA2
S315080006B410B51A6200240B4A1C625A620A4A5C6222
S315080006C41A6180221C615A614FF0FF325C619A619B
S315080006D49C6101F067F8204610BD00BF003802404F
S315080006E40FC8E210317907009F10600038B50E4B29
S315080006F41A784FF47A73B3FBF2F30C4A054610687A
S31508000704B0FBF3F000F074F8044658B90F2D09D875
S31508000714024629464FF0FF3000F038F8044B2046CD
S315080007241D6038BD0120FCE70000002008000020F9
S315080007340400002008B50B4B1A6842F400721A60CC
S315080007441A6842F480621A601A6842F480721A605F
S31508000754032000F009F80020FFF7C8FF00F0BAFFED
S31508000764002008BD003C02400749CA6822F4E0623A
S315080007740302120403F4E063120C134343F0BF6349
S3150800078443F40033CB60704700ED00E030B5164BF8
S31508000794DC68C4F30224C4F10703251D042B28BF0F
S315080007A40423062D4FF0FF358CBF033C002405FABD
S315080007B403F321EA0303A54022EA0502A34000281D
S315080007C443EA0203ACBF00F16040084A4FEA031348
S315080007D4B8BF00F00F00DBB2AABF00F5614013549E
S315080007E480F8003330BD00BF00ED00E014ED00E0F2
S315080007F40138B0F1807F0BD24FF0E023054A5861E7
S31508000804F02182F823100020072298611A617047A4
S315080008140120704700ED00E010B509490C6924F47D
S3150800082440740C610C6944F440740C610C6944F01E
S3150800083401040C610260BFF36F8F436010BD00BFF3
S31508000844003C0240074B1A6922F440721A611A697D
S3150800085442F400721A611A6942F001021A610160CF
S31508000864704700BF003C0240074B1A6922F44072E5
S315080008741A611A6942F480721A611A6942F001020D
S315080008841A610180704700BF003C0240204BDA68B9
S31508000894D00606D51F49CA6942F01002CA61102259
S315080008A4DA60DA68910606D51A49CA6942F0080276
S315080008B4CA612022DA60164BDA68520606D515494B
S315080008C4CA6942F00402CA614022DA60DA6810068C
S315080008D406D51049CA6942F00202CA618022DA6062
S315080008E40B4BDA68D10507D50A49CA6942F00102F1
S315080008F4CA614FF48072DA60DA68920706D5054948
S31508000904CA6942F02002CA610222DA60704700BF4F
S31508000914003C024038000020064B1A69002ABFBF73
S31508000924054A5A6002F188325A60BABF1869C00F7C
S3150800093400207047003C024023016745034A1369B7
S3150800094443F0004313610020704700BF003C024097
S31508000954114B70B500220446DA6101F083FC0F4D91
S315080009640646EB68DA030CD4EB68DB0744BF0123BD
S31508000974EB60E86810F4F97007D0FFF787FF0120E9
S3150800098403E0611CEDD00CB9032070BD01F06AFCCC
S31508000994801BA042E5D9F7E738000020003C024056
S315080009A42DE9F0411F4E9846337E012B07460D4626
S315080009B4144635D001234CF250303376FFF7C8FF7E
S315080009C4B0B9CFB9184B1A6922F440721A611A6978
S315080009D41A611A69E4B242F001021A612C704CF2E7
S315080009E45030FFF7B5FF104A136923F0010313616A
S315080009F400233376BDE8F081012F04D1A1B228463D
S31508000A04FFF732FFEBE7022F04D121462846FFF70A
S31508000A1419FFE4E7224643462846FFF7FDFEDEE7CC
S31508000A240220E7E738000020003C0240074B1A6919
S31508000A3422F440721A611A6942F004021A611A69A8
S31508000A4442EA002242F480321A617047003C0240AE
S31508000A540D4B1A6922F440721A611A69022994BF65
S31508000A6409024FF440710A431A611A6922F0F8021E
S31508000A741A611A6942EAC00040F0020018611A694C
S31508000A8442F480321A617047003C0240144B1A68DB
S31508000A9491050FD51A6822F400721A601A6842F48E
S31508000AA400621A601A6822F400621A601A6842F42C
S31508000AB400721A600A4B1A6852050FD51A6822F48E
S31508000AC480621A601A6842F480521A601A6822F41C
S31508000AD480521A601A6842F480621A60704700BF2E
S31508000AE4003C02402DE9F843DFF8948098F8183062
S31508000AF4012B05460F463FD001234CF2503088F8A7
S31508000B041830FFF725FF0446A0B94FF0FF333B60C2
S31508000B142B68012B14D1287CFFF788FF4CF2503040
S31508000B24FFF716FF154A136923F0040304461361F5
S31508000B34FFF7ACFF002388F818302046BDE8F88391
S31508000B44AE68DFF83890D5E902231344B342EFD9E7
S31508000B54297C3046FFF77CFF4CF25030FFF7F8FE4D
S31508000B64D9F8103023F0FA03C9F8103010B13E60F2
S31508000B740446DDE70136E6E70224DEE7003C0240E8
S31508000B84380000202DE9F74FDFF88CC1604A0023AE
S31508000B944FF0010E4FF003080E680EFA03F404EA48
S31508000BA40605B44340F0A5804C6804F003045F00CE
S31508000BB4013C08FA07F6012C6FEA060611D8846880
S31508000BC404EA0609CC68BC4044EA0904846044681B
S31508000BD424EA05094C68C4F300149C4044EA090451
S31508000BE444604C6804F00304032C23D0C46804EA64
S31508000BF406098C68BC4044EA0904C4604C6804F0DD
S31508000C040304022C16D14FEAD30A00EB8A0A03F02E
S31508000C14070BDAF820404FEA8B0B4FF00F0909FA55
S31508000C240BF924EA09090C6904FA0BF444EA0904E1
S31508000C34CAF82040046826404C6804F00304BC4003
S31508000C44344304604C6814F4403F52D000240194A1
S31508000C54DCF8444044F48044CCF84440DCF844408E
S31508000C6423F0030606F1804604F4804406F59C3610
S31508000C74019403F00307019CD6F80890BF000F24DB
S31508000C84BC4029EA0409234CA04239D004F58064FF
S31508000C94A04237D004F58064A04235D004F58064B8
S31508000CA4A04233D004F58064A04214BF0724042468
S31508000CB4BC4044EA0904B4604C689768EE43E4020D
S31508000CC454BF37402F4397604C68D768A40254BF73
S31508000CD437402F43D7604C685768A40354BF37403E
S31508000CE42F4357604C681768E40354BF37402F43B3
S31508000CF417600133102B7FF44FAF03B0BDE8F08FB4
S31508000D040024D5E70124D3E70224D1E70324CFE757
S31508000D14003C014000000240003802403B4A2DE9ED
S31508000D24F04F00234FF0010A4FF00F084FF0030B62
S31508000D340AFA03FC3CEA01040CEA010658D123F03A
S31508000D44030404F1804404F59C3403F00307A568FE
S31508000D54BF0008FA07F909EA050E2D4DA8424CD03A
S31508000D6405F58065A8424AD005F58065A84248D0AD
S31508000D7405F58065A84246D005F58065A84214BFE6
S31508000D8407250425BD40754513D1156825EA0605CA
S31508000D941560556825EA06055560D56825EA0605E9
S31508000DA4D560956825EA06059560A56825EA0905C6
S31508000DB4A56005685C000BFA04F4DE0825EA040558
S31508000DC400EB8606056003F00705376AAD0008FAE6
S31508000DD405F527EA05073762C56825EA0405C560E7
S31508000DE4456825EA0C054560856825EA0404846097
S31508000DF40133102B9CD1BDE8F08F0025C2E70125ED
S31508000E04C0E70225BEE70325BCE700BF003C014056
S31508000E14000002400AB1816170470904FBE700003B
S31508000E242DE9F341044640B30368DE0710D423686A
S31508000E349D075BD42368190700F19D8023685A0728
S31508000E4400F1BD80A369002B40F0268100202EE026
S31508000E548E4B9A6802F00C02042A07D09A6802F0AC
S31508000E640C02082A0BD15B68590208D5874B1B6804
S31508000E749A03DCD56368002BD9D1012017E0626890
S31508000E84824BB2F5803F15D11A6842F480321A6053
S31508000E946368F3B101F0E6F97C4E054633689B03B3
S31508000EA4C5D401F0DFF9401B6428F7D9032002B042
S31508000EB4BDE8F081B2F5A02F1A6803D142F4802266
S31508000EC41A60E1E722F480321A601A6822F4802252
S31508000ED4DDE701F0C7F96D4E054633689F03A6D5CD
S31508000EE401F0C0F9401B6428F7D9DFE7674B9A6815
S31508000EF412F00C0F07D09A6802F00C02082A11D1D6
S31508000F045B685D020ED4614A1368990702D5E368E3
S31508000F14012BB2D11368216923F0F80343EAC1030C
S31508000F24136087E7E2685A4BB2B101221A6001F0EE
S31508000F3499F9564D06462B689B0707D52B682269EF
S31508000F4423F0F80343EAC2032B6073E701F08AF936
S31508000F54801B0228EFD9A9E71A6001F083F94B4EE2
S31508000F64054633689F077FF565AF01F07BF9401B9B
S31508000F740228F6D99AE76269454B82B10122C3F879
S31508000F84802E01F06FF9414E0546736F9B073FF5B6
S31508000F9455AF01F067F9401B0228F6D986E7C3F86E
S31508000FA4802E01F05FF9394E0546736F9F077FF56A
S31508000FB445AF01F057F9401B0228F6D976E7334BBB
S31508000FC41A6C12F080522BD101921A6C42F080529C
S31508000FD41A641B6C03F080530193019B01262D4D63
S31508000FE42B68D8051ED5A268284B012A2AD11A6F60
S31508000FF442F001021A67A368002B37D001F032F9D0
S31508001004224F054641F288383B6F9A0728D5002EA9
S315080010143FF418AF1D4A136C23F08053136411E789
S315080010240026DCE72B6843F480732B6001F01AF979
S3150800103407462B68D905D6D401F014F9C01B022833
S31508001044F7D933E7052A1A6F03D142F004021A675F
S31508001054CDE722F001021A671A6F22F00402C9E7E3
S3150800106401F000F9401B4045CED91FE701F0FAF814
S31508001074064F054641F288383B6F9B07C7D501F0F2
S31508001084F1F8401B4045F7D910E700BF0038024085
S315080010940000474200700040374DAA6802F00C026F
S315080010A4082A3ED0022B354B4FF000021A662BD184
S315080010B401F0D8F806462B6899011FD4D4E90732FB
S315080010C41343626A43EA8213E26A43EA0263A26A40
S315080010D45208013A43EA02436B60284B264D012223
S315080010E41A6601F0BFF804462B689A013FF5AEAEBE
S315080010F401F0B8F8001B0228F6D9D7E601F0B2F8D1
S31508001104801B0228D7D9D1E601F0ACF804462B682F
S315080011149B017FF59BAE01F0A5F8001B0228F6D9C2
S31508001124C4E6012B3FF4A9AE6B68E26903F48001B7
S3150800113491427FF4A2AE216A03F03F028A427FF409
S315080011449CAE616A47F6C0721A40B2EB811F7FF4FF
S3150800115494AEA26A520803F44031013AB1EB024F45
S315080011647FF48BAEE26A03F07063B3EB026F14BFCD
S31508001174012000209BE600BF0038024000004742D9
S3150800118408B513498B6803F00C03042B1CD0082BF1
S315080011941CD14A684B68496813F4800314BF0D4888
S315080011A40D48C1F3881118BF002302F03F02A1FBC2
S315080011B40001FFF731F8064B5B68C3F301430133BB
S315080011C45B00B0FBF3F008BD0248FCE70248FAE707
S315080011D40038024040787D010024F4002DE9F041EE
S315080011E40D46044610B90120BDE8F081454B1A683E
S315080011F402F007028A422AD323689E072FD423685B
S31508001204D90743D43F4B1A6802F00702AA4268D8A2
S3150800121423685A076ED423681B0707D53A4A2169F7
S31508001224936823F4604343EAC1039360FFF7A8FF76
S31508001234354B364A9B68C3F30313D35CD840344B07
S315080012441860344B1868FFF751FA0020CCE7CAB285
S315080012541A701B6803F007038B42C4D1CCE75807FE
S3150800126441BF294A936843F4E05393602368264AA6
S3150800127413F0080F1EBF936843F4604393609368A2
S31508001284A16823F0F0030B439360B8E762681E4B2A
S31508001294012A1CD11B6813F4003FA4D01A4EB36864
S315080012A423F003031343B36000F0DCFF41F28838EC
S315080012B40746B368626803F00C03B3EB820FA1D048
S315080012C400F0D0FFC01B4045F3D903208CE7911EDC
S315080012D401291B6802D813F0007FDEE713F0020F1A
S315080012E4DBE7EAB21A701B6803F00703AB427FF424
S315080012F47AAF8DE7044AE168936823F4E0530B4315
S31508001304936088E7003C024000380240A0220008A7
S31508001314080000200400002070B5414C00F0A2FF2C
S31508001324236843F00103054623602368980758D5C4
S31508001334236843F08003236000F094FF0023A3602E
S31508001344374C054641F28836A36813F00C0F4FD183
S3150800135400F088FF236823F450232360304C0546A5
S31508001364236899034AD400F07DFF236823F0807329
S3150800137423602B4C054623689A0145D400F072FF76
S31508001384236823F080632360254C054623681B01E4
S3150800139440D4244B6360244BC4F88430E368234A5E
S315080013A423F4F853E360E36823F40053E360E36843
S315080013B443F41F03E360E36843F40013E360636FD5
S315080013C423F001036367636F43F080736367184B05
S315080013D41A60184B1868FFF789F9003818BF0120F6
S315080013E405E000F03FFF401B02289ED9032070BD8C
S315080013F400F038FF401BB042A6D9F7E700F032FFE9
S31508001404401B6428ACD9F1E700F02CFF401B0228E6
S31508001414B1D9EBE700F026FF401B0228B6D9E5E769
S315080014240038024010300004003000200024F40084
S315080014340800002004000020034B044A9B68C3F3F9
S315080014440313D35CD840704700380240A022000832
S31508001454034B044A9B68C3F38223D35CD840704782
S315080014640038024098220008034B044A9B68C3F3D9
S315080014744233D35CD84070470038024098220008AB
S315080014840E4A0F49536813F4800F0E4B08BF0B46D8
S31508001494082810D150685168526800F03F00B3FB21
S315080014A4F0F0C1F388135843C2F3014301335B00D8
S315080014B4B0FBF3F070470020704700BF00380240C5
S315080014C40024F40040787D01064B986800F00C006F
S315080014D4042803D0082803D1FFF7D2BF024870476F
S315080014E4024870470038024040787D010024F40021
S315080014F410B50446FFF7E8FF2060FFF79DFF60601C
S315080015040146FFF7A5FFA0600846FFF7ADFFE060B8
S3150800151410BD000030B5C3689B0485B004460D466B
S3150800152402D5012005B030BD4B68C968C2680B43B3
S3150800153429690B43A96922F416420B4322F00C02CB
S315080015441343C3600369AA6823F44053134303612E
S3150800155443696A6923F44073134343616846FFF792
S31508001564C7FF224B9C4228D103980028D9D02B6860
S31508001574002BD6D0AA691921B2F5004FA0FB0101A8
S3150800158424D1DA184FF0000545EB0503FEF744FEAF
S315080015946422B0FBF2F102FB1103DB003233B3FB26
S315080015A4F2F303F007025B0002EB011203F4F8738B
S315080015B413449BB2A3600020B4E70D4B9C4201D1AF
S315080015C40298D2E70B4B9C42ABD1CDE79A009B0F0E
S315080015D4FEF722FE6422B0FBF2F102FB11031B01A3
S315080015E43233B3FBF2F303EB0113E2E700100140D5
S315080015F40044004000140140034AD2F8883043F4FA
S315080016047003C2F88830704700ED00E000B595B065
S315080016143022002108A8FEF79FFF1422002103A800
S31508001624FEF79AFF284B002101911A6C42F080526A
S315080016341A641B6C254A03F080530193019B02919B
S31508001644136823F4404343F400431360136803F414
S3150800165440430293029B01214FF480330220CDE9D3
S3150800166408134FF48003CDE90E034FF0190C4FF419
S31508001674A873CDE910C34FF0040E072308A8CDE9D3
S3150800168412E3FFF7CDFB18B11148952100F0C5F810
S315080016940F230221CDE9033100224FF4A053CDE9EB
S315080016A4052303A84FF480530793FFF797FD18B152
S315080016B40748A42100F0B1F8FFF73CF800F0EEF86B
S315080016C400F0FBF8FCE700BF003802400070004059
S315080016D4B022000870B58CB02F4B304D002401940D
S315080016E41A6C42F080521A641A6C02F08052019203
S315080016F4019A02945A6C42F480425A645A6C02F46F
S3150800170480420292029A03941A6B42F001021A6307
S315080017141A6B02F001020392039A04941A6B42F0BC
S3150800172402021A631A6B02F002020492049A0594DE
S315080017341A6B42F004021A631A6B02F00402059249
S31508001744059A06945A6C42F010025A645B6C03F0CC
S3150800175410030693069B4FF40056012307A928464F
S31508001764CDE90763CDE90944FFF70CFA2246314669
S315080017742846FFF74FFB4FF4C0620223CDE907233F
S3150800178403210723CDE90A130548099407A9FFF796
S31508001794F9F90CB070BD00BF0038024000080240D9
S315080017A40000024010B51A4CFFF7B6FD0022204689
S315080017B44FF40051FFF72EFB20464FF40051A4F5D1
S315080017C40064FFF7ABFA4FF400712046FFF7A6FA58
S315080017D44FF480612046FFF7A1FA0E4B5A6C22F0AB
S315080017E410025A641A6B22F004021A631A6B22F066
S315080017F402021A631A6B22F001021A631A6C22F0A7
S3150800180480521A645A6C22F480425A6410BD00BF8E
S315080018140008024000380240704708B500F0A5F8F1
S31508001824FCE7000010B500F097F8012814D00B4C1B
S315080018342378012B10D100F00DFD094B094A1B68CA
S315080018441268134403F5FA73984205D300232370E8
S31508001854BDE8104000F0FEB910BD00BF60000020CE
S31508001864580000205C00002008B5044B1B78012BA7
S3150800187403D100F0EFFC024B186008BD600000209D
S315080018845C00002008B5044B01221A70FFF7ECFF30
S31508001894BDE80840FFF7C6BF6000002008B500F0A1
S315080018A4D7F900F060F800F059FC00F0A9FB00F045
S315080018B40FF8BDE80840FFF7E5BF08B500F055F88E
S315080018C400F0AAFC00F010F8BDE80840FFF7AABF2C
S315080018D408B500F059F800F0BBFB024B00221A7059
S315080018E408BD00BF0C00002007B509480DF1070123
S315080018F400F0E6FB012807D1064B9DF807100448BB
S3150800190400221A7000F062F803B05DF804FB00BF09
S31508001914610000200C0000207047000008B5054B44
S315080019241B7813B9C9B200F0B1FBBDE8084000F052
S3150800193445B800BF0C000020054B1B78022B04D0C9
S31508001944032B0CBF3F20812070470820704700BF37
S315080019540C000020FFF7F0BF08B500F025F80038A2
S3150800196418BF012008BDFEF772BEFEF774BE00005C
S31508001974034BFE221A7002225870A3F88620704779
S31508001984E400002000687047064B0022C3F888204C
S31508001994A3F8862083F88120A3F8822083F884207C
S315080019A4704700BFE4000020034B93F88100003819
S315080019B418BF0120704700BFE4000020024B002234
S315080019C483F88420704700BFE4000020F8B5037844
S315080019D49C4CFF2B054630D10122002384F8812034
S315080019E441F2FF0284F88230A3702280FFF7A4FF35
S315080019F4E070FFF7AFFF2071FFF7ACFF40F2011369
S31508001A04000AE38008236071A4F8863000F0F8FA27
S31508001A1494F88430012B02D11020FFF7A9FFB4F9FA
S31508001A248610002940F30D81012384F88430BDE82B
S31508001A34F840844889B2FFF771BF94F88120012AD7
S31508001A4440F0FF80D22B1DD8C82B01D8202043E0B4
S31508001A54C93B092BFAD801A252F823F0A11B0008A6
S31508001A64511A0008511A0008B51B0008511A000833
S31508001A74511A0008411C0008CF1B0008291C00083D
S31508001A84131C000803F10D02D2B20B2ADED8F33B6D
S31508001A940B2BDBD801A252F823F000BF331B000836
S31508001AA4071B0008D11A0008211B0008511A000850
S31508001AB4511A0008511A0008691B0008511A00082F
S31508001AC4791B00087D1B0008911B0008FFF734FFEB
S31508001AD46A78904203D82220FFF74AFF98E7D4F899
S31508001AE48810594800F0D4F8FF236A782370D4F88C
S31508001AF488301344C4F888306B780133A4F88630E8
S31508001B0486E7FFF719FF6B788342E4D2281DFFF7AF
S31508001B1439FFC4F888006A780146E2E7FF23281DDE
S31508001B242370FFF72FFFC4F888000123E6E7281D72
S31508001B34FF232370FFF726FFD4F88860002587194A
S31508001B44BE4208D10023012225716371E3806270C5
S31508001B5463800823D2E716F8013B1D44EDB2FFF76C
S31508001B6404FFEDE7394BC4F88830FF220723C4E99C
S31508001B740023EEE70020AFE7FF23238094F88230A2
S31508001B84A3700023E370A3800623B7E7002384F831
S31508001B94813084F88230FF232370C6E7D4F888603E
S31508001BA4FFF7CAFE6A1C411E304600F02BFA08B934
S31508001BB4312091E7FF232370FFF7BEFED4F888305F
S31508001BC401380344C4F88830AFE7FFF7B5FE6B78ED
S31508001BD4013898427FF77FAFFF2323700123A4F8C7
S31508001BE48630697829B900F015FA00287FF410AF11
S31508001BF4DEE7D4F88800AA1C00F004FA0028D7D037
S31508001C046A78D4F888301344C4F8883000E7FF2388
S31508001C1400252380A570FFF78FFEA580E070A571C7
S31508001C2407236BE70430FFF7ADFED4F88830014686
S31508001C34184600F0E9F90028ADD1B9E700F00AF82A
S31508001C44A9E7F8BDE4000020E5000020EB2200081F
S31508001C5400F010BB10B500F0D9F9B0B1FFF75CFE7F
S31508001C64FEF724FD00F0BAFA00F0D2F9074B20F08B
S31508001C74604020F07F00986000F0CAF9446800F0DC
S31508001C84FBFA2346BDE81040184710BD00ED00E0F6
S31508001C94F8B506460F4615460024AC4200D1F8BDF1
S31508001CA43B5D3355FFF761FE0134F6E7F8B50C4C96
S31508001CB4064600252746FFF758FE2368B34208D888
S31508001CC462681344B34204D90C2303FB0577387AB4
S31508001CD4F8BD0135162D04F10C04ECD1FF20F7E705
S31508001CE4F42200082DE9F8430646FEF715FE0025FA
S31508001CF406F10409D6F8008059F8057005EB0804BE
S31508001D04FFF733FE21463A4600230220FEF748FE33
S31508001D14044668B955F80830BB4204D10435B5F50C
S31508001D24007FE7D10124FEF709FE2046BDE8F883C3
S31508001D340024F8E738B50E4B984204460D4607D0FA
S31508001D440C4A914212D0FFF7CDFF10B904460BE0B6
S31508001D54094C23689D4207D020464FF4007240F888
S31508001D64045B2946FFF794FF204638BD1C46F0E776
S31508001D747001002000800008740300202DE9F0415A
S31508001D841F46036821F4FF76013304460D46904640
S31508001D9426F0010606D140F8046B4FF4007231466A
S31508001DA4FFF776FF2368B34205D020463146FFF78E
S31508001DB4C1FF0446E8B123680435ED1A254406F53F
S31508001DC400764744FFF7D1FD231DEB1AB3F5007FD0
S31508001DD406D320463146FFF7ADFF044648B1051D34
S31508001DE418F8013B05F8013BB845EBD10120BDE8DD
S31508001DF4F0810020FBE70000034A4FF0FF3313602D
S31508001E04024A1360704700BF740300207001002063
S31508001E14124B70B51B1A16464A1E9A4204460D46BC
S31508001E2419D8FFF743FFFF2815D0601E2844FFF78B
S31508001E343DFFFF280FD00A4B24F4FF7222F001025B
S31508001E449A4221462B4632460CBF06480648BDE848
S31508001E547040FFF793BF002070BD00BFFFFF1F0847
S31508001E640080000870010020740300202DE9F04763
S31508001E74344B4A1E1B1A9A4286B004460E4604D9A7
S31508001E840024204606B0BDE8F087FFF70FFF054695
S31508001E94601E3044FFF70AFFFF2D0646F0D0FF28E0
S31508001EA4EED00024012D0094EBD91728E9D88542F1
S31508001EB4E7D8012302220194CDE90432FEF72CFD6A
S31508001EC4214F2C46E1B28E4203D20124FEF736FD99
S31508001ED4D7E71E4A00231046157A8D4221D10C22D3
S31508001EE45343C21850F80390556849EA05039B07FB
S31508001EF404D04FF42E713846FFF78FFC4FEA950845
S31508001F04002545454FEA850A01D10134DAE7EBB2E3
S31508001F140BB9FFF72AFD5AF80930013306D1013502
S31508001F24EFE70133162B02F10C02D5D1FFF71DFD9D
S31508001F34694601A80394FEF7D5FD0028E5D00024D8
S31508001F44C4E700BFFFFF1F08B7220008F4220008F1
S31508001F5407B50E4A1368013316D0D2E901310B448A
S31508001F64D1680B480B4411690B4451690B449169B8
S31508001F74D2690B4413445B4201AA04210193FFF777
S31508001F8447FF03B05DF804FB0120FAE7700100205F
S31508001F94948100080A4AD2E900310B4491680B443B
S31508001FA4D1680B4411690B4451690B449169D2F801
S31508001FB494210B44D3420CBF01200020704700BF74
S31508001FC40080000808B50A480368013305D10948A2
S31508001FD40368013306D1012008BDFFF783FE0028F4
S31508001FE4F5D1F9E7FFF77EFE003818BF0120F3E7BD
S31508001FF47001002074030020004870470080000820
S31508002004FFF7FABEFFF704BFFFF730BFFFF7C2BFFB
S31508002014FFF7F2BF08B5FFF79BFF18B1BDE8084004
S31508002024FFF7D0BF08BD000038B5084D686000F05A
S3150800203411F900F10A042B681B0605D4FFF795FC71
S3150800204400F008F9A042F6D938BD00BF00100140D7
S3150800205410B50D4CE36823F4005388B0E3604FF4DD
S3150800206416520023CDE9012301A90C222046CDE905
S315080020740333CDE905230793FFF74CFAE36843F4E2
S315080020840053E36008B010BD00100140812938B53B
S3150800209404460D4603D909488621FFF7BEFB2846A0
S315080020A4FFF7C2FF2544AC4200D138BDFFF75DFCFB
S315080020B414F8010BFFF7B8FFF5E700BFD1220008B3
S315080020C42DE9F041204C214E25780F46ADB93368E9
S315080020D49B060FD573681E4ADBB21370013BDBB24D
S315080020E4802B07D800F0B6F81A4B18601A4B1D70E7
S315080020F4012323700020BDE8F0813568DFF8588095
S3150800210415F0200598F8003014D011497568CA18D6
S31508002114013355700A78DBB29A4288F80030E9D15F
S315080021240131FFF7B5FD0023237098F800303B70A2
S315080021340120E0E700F08EF8064B1B68C833984286
S31508002144D8D92570D6E700BF040600200010014040
S31508002154800500207C05002078050020184B1949C5
S315080021645A6C42F001025A645A6C82B002F00102B7
S315080021740192019A9A689B68C2F3423213F4604F3B
S315080021848A5C1149096821FA02F1104A14BF02232C
S315080021940123012010604B434FF6FF700C49B3FB33
S315080021A4F1F3013BD0629362536943F0010353612F
S315080021B4084B00211960526A074B1A8002B070470F
S315080021C40038024098220008080000200000014058
S315080021D4A086010008060020060600200C4B5A6A51
S315080021E442F001025A625A6A22F001025A625A6C91
S315080021F422F001025A644FF0E02300221A615A6160
S315080022049A61044A536843F000735360704700BFE9
S315080022140038024000ED00E010B50B4B0B485B6A32
S3150800222402889B1A9BB2632B0DD9094C6421B3FB14
S31508002234F1F32168194403EB830303EB830302EBED
S3150800224483022160028010BD0000014006060020BA
S315080022540806002008B5FFF7DFFF014B186808BD1C
S315080022640806002008B5FFF7D7FF014B186808BD14
S315080022740806002072B6704762B67047F8B500BF04
S31508002284F8BC08BC9E467047F8B500BFF8BC08BC45
S309080022949E4670479D
S31508002298000000000102030400000000000000001E
S315080022A801020304060708096D61696E2E63002E8C
S315080022B82E2F41524D434D345F53544D33324634D5
S315080022C82F666C6173682E63002E2E2F41524D437C
S315080022D84D345F53544D333246342F72733233328A
S315080022E82E63004F70656E424C540000008000084B
S315080022F8004000000200000000C00008004000007E
S3150800230803000000000001080000010004000000A6
S31508002318000002080000020005000000000004088A
S31508002328000002000600000000000608000002007F
S315080023380700000000000808000002000800000066
S3150800234800000A08000002000900000000000C0846
S31508002358000002000A00000000000E080000020043
S315080023680B00000000001008004000000C000000E8
S3150800237800401008004000000D000000008010080A
S31508002388004000000E00000000C0100800400000D1
S315080023980F000000000011080000010010000000EE
S315080023A800001208000002001100000000001408CE
S315080023B800000200120000000000160800000200D3
S315080023C813000000000018080000020014000000AE
S315080023D800001A08000002001500000000001C088A
S315080023E8000002001600000000001E080000020097
S309080023F817000000BC
S30D080023FC50DEFF7F010000001E
S30908002404FD010008C0
S30908002408D5010008E4
S3150800240C01000000100000000024F4000500000084
S70508000601EB
