S00F000062696E2F6170702E737265636C
S3150800800000000120058600085586000855860008E8
S3150800801055860008558600085586000800000000A9
S31508008020000000000000000000000000558600085F
S315080080305586000800000000558600089191000842
S315080080405586000855860008558600085586000896
S315080080505586000855860008558600085586000886
S315080080605586000855860008558600085586000876
S315080080705586000855860008558600085586000866
S315080080805586000855860008558600080000000039
S3150800809000000000000000000000000055860008EF
S315080080A05586000855860008558600085586000836
S315080080B05586000855860008558600085586000826
S315080080C05586000855860008558600085586000816
S315080080D055860008558600085586000800000000E9
S315080080E055860008558600085586000800000000D9
S315080080F0000000000000000000000000558600088F
S3150800810000000000558600085586000855860008B8
S315080081100000000000000000000000000000000051
S3150800812055860008558600085586000855860008B5
S31508008130558600080000000000000000000000004E
S31508008140000000000000000000000000558600083E
S315080081505586000855860008558600085586000885
S31508008160558600085586000800000000000000003B
S3150800817000000000000000000000000000000000F1
S3150800818000000000558600080000000000000000FE
S30D0800819055860008EE11AA55F8
S315080081980348044B834202D0034B03B11847704780
S315080081A80C0000200C000020000000000548064BC3
S315080081B81B1AD90F01EBA301491002D0034B03B1CF
S315080081C8184770470C0000200C000020000000002B
S315080081D810B5064C237843B9FFF7DAFF044B13B1F9
S315080081E80448AFF300800123237010BD0C0000205B
S315080081F8000000009491000808B5044B1BB1044917
S315080082080448AFF30080BDE80840CFE70000000047
S31508008218100000209491000853B94AB9002908BFEC
S3150800822800281CBF4FF0FF314FF0FF3000F06AB945
S31508008238ADF1080C6DE904CE00F006F8DDF804E0A7
S31508008248DDE9022304B070472DE9F047089D0E467C
S3150800825804460F46002B4AD194468C45B2FA82F258
S3150800826860D942B1C2F12003974020FA03F30CFA09
S3150800827802FC1F4394404FEA1C4E1FFA8CF6B7FBC4
S31508008288FEF1230C0EFB117743EA074301FB06F0C0
S3150800829898420AD91CEB030301F1FF3780F01581D0
S315080082A8984240F21281023963441B1AA4B2B3FBFE
S315080082B8FEF00EFB103344EA034400FB06F6A6421A
S315080082C80AD91CEB040400F1FF3380F00081A642AA
S315080082D840F2FD806444023840EA0140A41B0021AC
S315080082E81DB1D4400023C5E90043BDE8F0878B4299
S315080082F805D90DB1C5E9000100210846F5E7B3FA25
S3150800830883F1002946D1B34202D3824200F2F580AE
S31508008318841A66EB030201201746002DE5D0C5E945
S315080083280047E2E7002A40F09380A1EB0C034FEAE6
S315080083381C471FFA8CFE0121B3FBF7F607FB16301C
S31508008348230C43EA00430EFB06F0984208D91CEBB7
S31508008358030306F1FF3802D2984200F2D080464657
S315080083681B1AA4B2B3FBF7F007FB103344EA03441D
S315080083780EFB00FEA64508D91CEB040400F1FF33E2
S3150800838802D2A64500F2B6801846A4EB0E0440EAC7
S315080083980640A5E7C1F120078B4022FA07FC4CEAFC
S315080083A8030C06FA01FE20FA07F426FA07F344EA4C
S315080083B80E0400FA01F84FEA1C404FEA1449B3FBC9
S315080083C8F0FE1FFA8CF600FB1E3349EA03430EFB40
S315080083D806F9994502FA01F20BD91CEB03030EF1CB
S315080083E8FF3A80F08580994540F28280AEF1020E08
S315080083F86344A3EB0909A4B2B9FBF0F300FB13998C
S3150800840844EA094403FB06F6A64208D91CEB040409
S3150800841803F1FF3068D2A64266D9023B644443EAB0
S315080084280E40A41BA0FB02E6B4427346B14652D3DB
S315080084384FD05DB1B8EB030264EB090404FA07F7F9
S3150800844822FA01F31F43CC40C5E9007400214CE722
S31508008458C2F1200120FA01F30CFA02FC26FA01F10E
S31508008468964033434FEA1C471FFA8CFEB1FBF7F0D8
S3150800847807FB1016190C41EA064100FB0EF68E4258
S3150800848804FA02F408D91CEB010100F1FF382DD2D1
S315080084988E422BD902386144891B9BB2B1FBF7F689
S315080084A807FB161143EA014306FB0EF1994208D960
S315080084B81CEB030306F1FF3814D2994212D9023E7F
S315080084C863445B1A46EA004136E73946EDE618463C
S315080084D802E7F045ADD2BEEB020366EB0C0601389F
S315080084E8B146A6E74646ECE7034698E74046D3E78B
S315080084F8D6467EE76444023847E708460DE7023E53
S3150800850863442DE7704700BF70B50F4B0F4DAB425C
S31508008518A3EB050607D0B610002455F8043B01342A
S315080085289847A642F9D800F031FE094D094B5E1B5B
S31508008538AB424FEAA60606D0002455F8043B013498
S315080085489847A642F9D870BDE4910008E491000856
S31508008558E4910008E8910008830730B547D0541E0F
S31508008568002A3ED0CAB2034601E0013C39D303F8D3
S31508008578012B9D07F9D1032C2CD9CDB205EB05257E
S315080085880F2C05EB054535D9A4F1100222F00F0C7E
S3150800859803F1100EE6444FEA121C1A46C2E90055C2
S315080085A8C2E9025510327245F8D10CF1010214F0ED
S315080085B80C0F03EB021204F00F0C13D0ACF10403F2
S315080085C823F003030433134442F8045B9342FBD1B4
S315080085D80CF003042CB1C9B21C4403F8011BA342CE
S315080085E8FBD130BD64461346002CF4D1F9E703469F
S315080085F81446C0E71A46A446E0E700BFDFF834D0B9
S31508008608002103E00C4B5B58435004310B480C4BD4
S3150800861842189A42F6D30B4A02E0002342F8043B72
S31508008628094B9A42F9D300F0E3FCFFF76DFF00F017
S31508008638E9FC704700000120EC91000800000020C2
S315080086480C0000200C0000202C000020FEE700008B
S3150800865838B50E4B1A784FF47A73B3FBF2F30C4A13
S3150800866805461068B0FBF3F000F086F8044658B9DA
S315080086780F2D09D8024629464FF0FF3000F04AF870
S31508008688044B20461D6038BD0120FCE70000002089
S31508008698080000200400002008B50B4B1A6842F4AD
S315080086A800721A601A6842F480621A601A6842F4FC
S315080086B880721A60032000F01BF80020FFF7C8FF35
S315080086C800F00CFD002008BD003C0240034A044B9C
S315080086D811681B780B441360704700BF28000020F8
S315080086E800000020014B1868704700BF28000020CA
S315080086F80749CA6822F4E0620302120403F4E06335
S31508008708120C134343F0BF6343F40033CB6070473E
S3150800871800ED00E030B5164BDC68C4F30224C4F15A
S315080087280703251D042B28BF0423062D4FF0FF3504
S315080087388CBF033C002405FA03F321EA0303A5408A
S3150800874822EA0502A340002843EA0203ACBF00F167
S315080087586040084A4FEA0313B8BF00F00F00DBB2BF
S31508008768AABF00F56140135480F8003330BD00BF36
S3150800877800ED00E014ED00E00138B0F1807F0BD27F
S315080087884FF0E023054A5861F02182F823100020AB
S31508008798072298611A6170470120704700ED00E0CA
S315080087A82DE9F74FDFF88CC1604A00234FF0010E18
S315080087B84FF003080E680EFA03F404EA0605B443F4
S315080087C840F0A5804C6804F003045F00013C08FAF1
S315080087D807F6012C6FEA060611D8846804EA060922
S315080087E8CC68BC4044EA09048460446824EA05095C
S315080087F84C68C4F300149C4044EA090444604C6875
S3150800880804F00304032C23D0C46804EA06098C6818
S31508008818BC4044EA0904C4604C6804F00304022C0A
S3150800882816D14FEAD30A00EB8A0A03F0070BDAF8DF
S3150800883820404FEA8B0B4FF00F0909FA0BF924EA87
S3150800884809090C6904FA0BF444EA0904CAF8204031
S31508008858046826404C6804F00304BC4034430460AA
S315080088684C6814F4403F52D000240194DCF8444084
S3150800887844F48044CCF84440DCF8444023F003062A
S3150800888806F1804604F4804406F59C36019403F004
S315080088980307019CD6F80890BF000F24BC4029EAB4
S315080088A80409234CA04239D004F58064A04237D085
S315080088B804F58064A04235D004F58064A04233D01C
S315080088C804F58064A04214BF07240424BC4044EA83
S315080088D80904B4604C689768EE43E40254BF37400D
S315080088E82F4397604C68D768A40254BF37402F4374
S315080088F8D7604C685768A40354BF37402F4357605E
S315080089084C681768E40354BF37402F431760013390
S31508008918102B7FF44FAF03B0BDE8F08F0024D5E7DE
S315080089280124D3E70224D1E70324CFE7003C01401A
S3150800893800000240003802402DE9F341044640B3DE
S315080089480368DE0710D423689D075BD423681907D4
S3150800895800F19D8023685A0700F1BD80A369002BA2
S3150800896840F0268100202EE08E4B9A6802F00C0211
S31508008978042A07D09A6802F00C02082A0BD15B6809
S31508008988590208D5874B1B689A03DCD56368002B00
S31508008998D9D1012017E06268824BB2F5803F15D11C
S315080089A81A6842F480321A606368F3B1FFF79AFED0
S315080089B87C4E054633689B03C5D4FFF793FE401BD8
S315080089C86428F7D9032002B0BDE8F081B2F5A02FD4
S315080089D81A6803D142F480221A60E1E722F4803249
S315080089E81A601A6822F48022DDE7FFF77BFE6D4ECF
S315080089F8054633689F03A6D5FFF774FE401B64280F
S31508008A08F7D9DFE7674B9A6812F00C0F07D09A6810
S31508008A1802F00C02082A11D15B685D020ED4614A7D
S31508008A281368990702D5E368012BB2D1136821693F
S31508008A3823F0F80343EAC103136087E7E2685A4B51
S31508008A48B2B101221A60FFF74DFE564D06462B684D
S31508008A589B0707D52B68226923F0F80343EAC20364
S31508008A682B6073E7FFF73EFE801B0228EFD9A9E7BC
S31508008A781A60FFF737FE4B4E054633689F077FF5A2
S31508008A8865AFFFF72FFE401B0228F6D99AE76269F9
S31508008A98454B82B10122C3F8802EFFF723FE414ECB
S31508008AA80546736F9B073FF555AFFFF71BFE401B3F
S31508008AB80228F6D986E7C3F8802EFFF713FE394E43
S31508008AC80546736F9F077FF545AFFFF70BFE401BFB
S31508008AD80228F6D976E7334B1A6C12F080522BD156
S31508008AE801921A6C42F080521A641B6C03F0805388
S31508008AF80193019B01262D4D2B68D8051ED5A26822
S31508008B08284B012A2AD11A6F42F001021A67A3686C
S31508008B18002B37D0FFF7E6FD224F054641F2883885
S31508008B283B6F9A0728D5002E3FF418AF1D4A136CD9
S31508008B3823F08053136411E70026DCE72B6843F417
S31508008B4880732B60FFF7CEFD07462B68D905D6D468
S31508008B58FFF7C8FDC01B0228F7D933E7052A1A6F9D
S31508008B6803D142F004021A67CDE722F001021A6718
S31508008B781A6F22F00402C9E7FFF7B4FD401B404507
S31508008B88CED91FE7FFF7AEFD064F054641F28838EE
S31508008B983B6F9B07C7D5FFF7A5FD401B4045F7D98F
S31508008BA810E700BF00380240000047420070004046
S31508008BB8374DAA6802F00C02082A3ED0022B354B1C
S31508008BC84FF000021A662BD1FFF78CFD06462B6874
S31508008BD899011FD4D4E907321343626A43EA821318
S31508008BE8E26A43EA0263A26A5208013A43EA02437E
S31508008BF86B60284B264D01221A66FFF773FD04465B
S31508008C082B689A013FF5AEAEFFF76CFD001B0228EC
S31508008C18F6D9D7E6FFF766FD801B0228D7D9D1E62D
S31508008C28FFF760FD04462B689B017FF59BAEFFF7AF
S31508008C3859FD001B0228F6D9C4E6012B3FF4A9AE54
S31508008C486B68E26903F4800191427FF4A2AE216A57
S31508008C5803F03F028A427FF49CAE616A47F6C07207
S31508008C681A40B2EB811F7FF494AEA26A520803F445
S31508008C784031013AB1EB024F7FF48BAEE26A03F05A
S31508008C887063B3EB026F14BF012000209BE600BF98
S31508008C98003802400000474208B513498B6803F0BC
S31508008CA80C03042B1CD0082B1CD14A684B6849684E
S31508008CB813F4800314BF0D480D48C1F3881118BF73
S31508008CC8002302F03F02A1FB0001FFF7A5FA064BB5
S31508008CD85B68C3F3014301335B00B0FBF3F008BDDF
S31508008CE80248FCE70248FAE70038024040787D0166
S31508008CF80024F4002DE9F0410D46044610B9012078
S31508008D08BDE8F081454B1A6802F007028A422AD361
S31508008D1823689E072FD42368D90743D43F4B1A687C
S31508008D2802F00702AA4268D823685A076ED423684D
S31508008D381B0707D53A4A2169936823F4604343EA2F
S31508008D48C1039360FFF7A8FF354B364A9B68C3F300
S31508008D580313D35CD840344B1860344B1868FFF7B4
S31508008D6877FC0020CCE7CAB21A701B6803F0070321
S31508008D788B42C4D1CCE7580741BF294A936843F4C4
S31508008D88E05393602368264A13F0080F1EBF9368BA
S31508008D9843F4604393609368A16823F0F0030B4398
S31508008DA89360B8E762681E4B012A1CD11B6813F446
S31508008DB8003FA4D01A4EB36823F003031343B360E5
S31508008DC8FFF790FC41F288380746B368626803F0F3
S31508008DD80C03B3EB820FA1D0FFF784FCC01B4045F8
S31508008DE8F3D903208CE7911E01291B6802D813F0D2
S31508008DF8007FDEE713F0020FDBE7EAB21A701B689A
S31508008E0803F00703AB427FF47AAF8DE7044AE168BB
S31508008E18936823F4E0530B43936088E7003C0240C9
S31508008E2800380240B4910008080000200400002019
S31508008E38034B044A9B68C3F30313D35CD8407047B3
S31508008E4800380240B4910008034B044A9B68C3F3F0
S31508008E588223D35CD840704700380240AC9100089A
S31508008E68034B044A9B68C3F34233D35CD840704724
S31508008E7800380240AC9100080E4A0F49536813F4AB
S31508008E88800F0E4B08BF0B46082810D1506851684A
S31508008E98526800F03F00B3FBF0F0C1F3881358435B
S31508008EA8C2F3014301335B00B0FBF3F070470020BF
S31508008EB8704700BF003802400024F40040787D015E
S31508008EC8064B986800F00C00042803D0082803D13C
S31508008ED8FFF7D2BF02487047024870470038024079
S31508008EE840787D010024F40010B50446FFF7E8FF32
S31508008EF82060FFF79DFF60600146FFF7A5FFA060A9
S31508008F080846FFF7ADFFE06010BD000030B5C3683E
S31508008F189B0485B004460D4602D5012005B030BD30
S31508008F284B68C968C2680B4329690B43A96922F4C7
S31508008F3816420B4322F00C021343C3600369AA685E
S31508008F4823F440531343036143696A6923F440735E
S31508008F58134343616846FFF7C7FF224B9C4228D153
S31508008F6803980028D9D02B68002BD6D0AA691921CE
S31508008F78B2F5004FA0FB010124D1DA184FF000051D
S31508008F8845EB0503FFF748F96422B0FBF2F102FB4B
S31508008F981103DB003233B3FBF2F303F007025B007D
S31508008FA802EB011203F4F87313449BB2A360002082
S31508008FB8B4E70D4B9C4201D10298D2E70B4B9C4271
S31508008FC8ABD1CDE79A009B0FFFF726F96422B0FBD1
S31508008FD8F2F102FB11031B013233B3FBF2F303EB85
S31508008FE80113E2E700100140004400400014014064
S31508008FF8034AD2F8883043F47003C2F888307047B9
S3150800900800ED00E000B595B03022002108A8FFF76A
S31508009018A3FA1422002103A8FFF79EFA2B4B002176
S3150800902801911A6C42F080521A641B6C284A03F0A4
S3150800903880530193019B0291136823F4404343F438
S3150800904800431360136803F440430293029B01210B
S315080090584FF48033CDE9081302244FF4800319200E
S31508009068CDE90E434FF4A873CDE910030425072369
S3150800907808A8CDE91253FFF75FFC00B1FEE70F23F6
S31508009088CDE9033405904FF48053214603A8CDE96A
S315080090980633FFF72FFE00B1FEE7FFF7FDFA0D4B83
S315080090A808AC03F1180518685968224603C208333C
S315080090B8AB421446F7D1084908AB13F8012B02B995
S315080090C8FEE74A600A681206FCD5F6E70038024049
S315080090D800700040C49100080044004070B58CB088
S315080090E8274C284800250195236C43F080532364B0
S315080090F8236C03F080530193019B0295636C43F438
S3150800910880436364636C03F480430293029B04956B
S31508009118236B43F001032363236B079503F00103CD
S315080091280493049B0C2602230122CDE9056305A9AD
S315080091380723CDE90823FFF733FB0395236C43F48C
S3150800914800332364236CA4F5FA3403F40033039339
S31508009158039BE36823F40053E36005A94FF4165309
S315080091682046CDE90535CDE90755CDE909650B95BD
S31508009178FFF7CCFEE36843F40053E3600CB070BD18
S315080091880038024000000240FFF7A0BAF8B500BF51
S31508009198F8BC08BC9E467047F8B500BFF8BC08BCC2
S309080091A89E4670471A
S315080091AC000000000102030400000000000000009B
S315080091BC010203040607080948656C6C6F20776F73
S315080091CC726C642066726F6D204170702E0D0A00E9
S30D080091DC74F0FF7F010000009A
S309080091E401820008EE
S309080091E8D981000813
S311080091EC01000000100000000024F40040
S7050800860567
